:10000000F5C0000024C1000022C1000020C1000092
:100010001EC100001CC100001AC1000018C1000070
:1000200016C1000014C1000012C1000010C1000080
:100030000EC100000CC100000AC1000008C1000090
:1000400006C1000004C1000002C1000000C10000A0
:10005000FEC00000FCC00000FAC000000C94851037
:10006000F6C000000C944F100C942510F0C0000056
:10007000EEC00000ECC00000EAC00000E8C00000D4
:10008000E6C00000E4C00000E2C00000E0C00000E4
:100090000C94EF0F0C94C50FDAC00000D8C000001C
:1000A000D6C00000D4C00000D2C00000D0C0000004
:1000B000CEC00000CCC00000CAC00000C8C0000014
:1000C000C6C00000C4C00000C2C00000C0C0000024
:1000D000BEC00000BCC00000BAC00000B8C0000034
:1000E000B6C0000000002100240027002A002D00D7
:1000F0003000330001010000040107010A01000083
:100100002200250028002B002E00310034000201BF
:100110000000050108010B01050505050705080894
:100120000808020202020A0A080804040404010181
:100130000101010101010303030303030303040796
:1001400007070C0C0C0C0C0C0C0C0202020206062D
:100150000606060606060B0B0B0B0B0B0B0B010220
:1001600010202008081020401020408002010201C9
:100170000804020101020408102040808040201081
:1001800008040201800402018040201008040201DA
:100190000804020101020408102040800102040842
:1001A0001020408000000A0B02090C0D0E08070306
:1001B000040100000000000000000000000000003A
:1001C000000000000000000000000000000000002F
:1001D00012111000000000000000000000000000EC
:1001E00000000000000000000000CF1011241FBE1E
:1001F000CFEFD1E2DEBFCDBF00E00CBF14E0A0E046
:10020000B2E0E4E4FCE200E00BBF02C007900D9214
:10021000A835B107D9F72AE0A8E5B4E001C01D92DE
:10022000AD36B207E1F710E0C6EFD0E000E006C05F
:1002300021970109802FFE010E94E113C53FD107DC
:1002400080E00807A9F70E94ED110C942016D8CE83
:10025000CF92DF92EF92FF92CF93DF93EC016A018E
:100260007B01E889F98982E08083C11481EED80698
:10027000E104F104A1F060E079E08DE390E0A701F2
:1002800096010E94BF132150310941095109569529
:10029000479537952795211580E1380798F0E8892B
:1002A000F989108260E874E88EE190E0A701960178
:1002B0000E94BF13215031094109510956954795B4
:1002C00037952795EC85FD853083EE85FF85208366
:1002D000188EEC89FD8986E08083EA89FB8980811C
:1002E00080618083EA89FB89808188608083EA89D4
:1002F000FB89808180688083EA89FB8980818F7D8A
:100300008083DF91CF91FF90EF90DF90CF900895A1
:10031000382FE1EBF1E08491EBE6F1E02491E5E2A6
:10032000F1E09491992309F435C0882311F18150AB
:100330008231F8F4E82FF0E08827EE55FE4F8F4F1A
:100340000C94E113D301D701B401CB01CF01B90162
:10035000DA01E001E401EA01EE01F201F801FC0139
:10036000B901000206020A02809180008F77809313
:100370008000E92FF0E0EE0FFF1FE250FF4FA59144
:10038000B4918FB7F894EC91311148C020952E2389
:100390002C938FBF0895809180008F7DE8CF80914E
:1003A0008000877FE4CF84B58F7784BDE2CF84B5AA
:1003B0008F7DFBCF8091B0008F778093B000D9CF35
:1003C0008091B0008F7DF9CF809190008F778093DE
:1003D0009000CFCF809190008F7DF9CF80919000D9
:1003E000877FF5CF8091A0008F778093A000C1CF49
:1003F0008091A0008F7DF9CF8091A000877FF5CFFD
:10040000809120018F7780932001B3CF80912001CC
:100410008F7DF9CF80912001877FF5CF2E2BB8CF2C
:10042000AF92BF92CF92DF92EF92FF920F931F9302
:10043000CF93DF936C017B018B01040F151FEB0140
:100440005E01AE18BF08C017D10759F06991D601F7
:10045000ED91FC910190F081E02DC6011995892B59
:1004600079F7C501DF91CF911F910F91FF90EF9028
:10047000DF90CF90BF90AF900895FC01538D448DD5
:10048000252F30E0842F90E0821B930B541710F03F
:10049000CF96089501970895FC01918D828D98174C
:1004A00061F0A28DAE0FBF2FB11D5D968C91928D24
:1004B0009F5F9F73928F90E008958FEF9FEF089555
:1004C000FC01918D828D981731F0828DE80FF11D1E
:1004D000858D90E008958FEF9FEF0895FC01918D39
:1004E000228D892F90E0805C9F4F821B91098F7332
:1004F0009927089581E694E0F1DF21E0892B09F442
:1005000020E0822F08958EEF94E0E8DF21E0892B30
:1005100009F420E0822F0895FC01A48DA80FB92FC3
:10052000B11DA35ABF4F2C91848D90E001968F731B
:100530009927848FA689B7892C93A089B1898C913A
:10054000837080648C93938D848D981306C0028889
:10055000F389E02D80818F7D80830895EF92FF9253
:100560000F931F93CF93DF93EC0181E0888F9B8DD6
:100570008C8D98131AC0E889F989808185FF15C090
:100580009FB7F894EE89FF896083E889F9898081B3
:100590008370806480839FBF81E090E0DF91CF9182
:1005A0001F910F91FF90EF900895F62E0B8D10E0A4
:1005B0000F5F1F4F0F731127E02E8C8D8E110BC014
:1005C0000FB607FCFACFE889F989808185FFF5CF5E
:1005D000CE01A2DFF2CFEB8DEC0FFD2FF11DE35A20
:1005E000FF4FF0829FB7F8940B8FEA89FB898081D7
:1005F0008062D0CFCF93DF93EC01888D8823B1F058
:10060000AA89BB89E889F9898C9185FD03C080811D
:1006100086FD0CC00FB607FCF7CF8C9185FFF2CF9B
:10062000808185FFEDCFCE0177DFEACFDF91CF91DB
:10063000089580E090E0892B21F065DF81110E9410
:10064000000080E090E0892B21F054DF81110E94AE
:10065000000080E090E0892B49F080E090E0892B59
:1006600029F00E94000081110E94000080E090E0CB
:10067000892B49F080E090E0892B29F00E9400004E
:1006800081110C94000008953FB7F89480915D04A7
:1006900090915E04A0915F04B091600426B5A89B80
:1006A00005C02F3F19F00196A11DB11D3FBFBA2F04
:1006B000A92F982F8827BC01CD01620F711D811DC4
:1006C000911D42E0660F771F881F991F4A95D1F749
:1006D00008958F929F92AF92BF92CF92DF92EF9246
:1006E000FF924B015C01D0DF6B017C01CDDF6C1907
:1006F0007D098E099F09683E734081059105B0F31D
:1007000021E0821A9108A108B10888EEC80E83E0A2
:10071000D81EE11CF11C81149104A104B10431F72D
:10072000FF90EF90DF90CF90BF90AF909F908F9011
:10073000089581E0EDDD64EF71E080E090E0C9DFD5
:1007400080E0E6DD64EF71E080E090E0C2DF81E010
:10075000DFDD64EF71E080E090E0BBDF80E0D8DDBA
:1007600064EF71E080E090E0B4DF81E0D1DD64EF20
:1007700071E080E090E0ADDF80E0CADD64EF71E021
:1007800080E090E0A6DF81E0C3DD64EF71E080E00F
:1007900090E09FDF80E0BCDD64EF71E080E090E0FE
:1007A00098DF81E0B5DD64EF71E080E090E091DFFB
:1007B00080E0AEDD64EF71E080E090E08ADF81E010
:1007C000A7DD64EF71E080E090E083DF80E0A0DDF2
:1007D00064EF71E080E090E07CDF81E099DD64EF20
:1007E00071E080E090E075DF80E092DD64EF71E021
:1007F00080E090E06EDF81E08BDD64EF71E080E00F
:1008000090E067DF80E084DD64EF71E080E090E0FD
:1008100060DFEBE9F5E08681978164817581DC0119
:10082000ED91FC910190F081E02D4FEA55E0199493
:100830002FB7F8946091590470915A0480915B0429
:1008400090915C042FBF08958A579B4FFC018081D3
:1008500008958BEA92E008958CEC92E00895FC01F3
:1008600086A197A10895AF92BF92CF92DF92EF92A7
:10087000FF920F931F93CF93DF9300D01F921F928D
:10088000CDB7DEB7643671054CF0FC01EA57FB4F7B
:100890002081F12CE12C222309F476C0DA017B01BE
:1008A0008C01BC01615E7D4FED91FC910190F08166
:1008B000E02DCA011995680128EEC21A2DEFD20A5F
:1008C0002FEFD6012C93F801E75EFD4F2EEF20832A
:1008D00031968083319690833196292F280F209569
:1008E00020833196E0821696FC9245E050E030E09D
:1008F00020E0DC011696A417B50734F06191260FAD
:10090000311D4F5F5F4FF7CF7C01B8E0EB0EF11C5C
:10091000800F911FFC01E15EFD4F20952083E1E0F7
:10092000EE16E2E0FE06B4F45601C5018C199D09ED
:100930008E159F054CF5D80112968D919C91F5016D
:1009400061915F01DC01ED91FC910190F081E02D5E
:100950001995EBCF8BE492E09A83898383E08B83B4
:1009600080EE92E09D838C83D801ED91FC91019003
:10097000F081E02DAE014F5F5F4F67E070E0C8018E
:100980001995EE24EA94FE2CC7010F900F900F905A
:100990000F900F90DF91CF911F910F91FF90EF90EB
:1009A000DF90CF90BF90AF9008950F931F93CF9398
:1009B000DF9300D000D000D01F92CDB7DEB78C01FE
:1009C0008FE392E09A8389831B821C821D821E82A0
:1009D0001F82188619861A86D801ED91FC91019024
:1009E000F081E02DAE014F5F5F4F6AE070E0C8011B
:1009F00019951EDFF80160877187828793872A9691
:100A00000FB6F894DEBF0FBECDBFDF91CF911F911F
:100A10000F910895CF92DF92EF92FF92DC011D9229
:100A20001D921D921C921397FB0130E020E0419132
:100A300050E0022E02C0440F551F0A94E2F7052E23
:100A4000000C660B770BCD90DD90ED90FC9013972A
:100A50004C295D296E297F294D935D936D937C937D
:100A60001397285F3F4F2032310509F7FF90EF9031
:100A7000DF90CF900895FC0140835183128213824E
:100A8000089589E193E008958AE393E0089580E56D
:100A900093E0089581E793E008954F925F926F92FB
:100AA0007F928F929F92AF92BF92EF92FF920F939D
:100AB0001F93CF93DF9300D01F92CDB7DEB77C0199
:100AC0008B01CE010196A6DF89819A81AB81BC8121
:100AD0004C015D0124E0820E911CA11CB11CA801F7
:100AE0004D5F5F4FFA0124E030E02901712C612C49
:100AF000481459046A047B0428F4618161932F5FD0
:100B00003F4FF3CFF801E80FF91F1382F70153832A
:100B1000428304960F900F900F900F90DF91CF912A
:100B20001F910F91FF90EF90BF90AF909F908F908B
:100B30007F906F905F904F90089581E893E00895C3
:100B400083E192E0089582EA93E0089583EC93E0D4
:100B500008954F925F926F927F928F929F92AF9281
:100B6000BF92EF92FF920F931F93CF93DF9300D02A
:100B70001F92CDB7DEB77C018B01FB018191BF01D4
:100B8000F7018283CE01019645DF89819A81AB818D
:100B9000BC814C015D01F5E08F0E911CA11CB11CC4
:100BA000A8014C5F5F4FFA0125E030E02901712C6C
:100BB000612C481459046A047B0428F46181619310
:100BC0002F5F3F4FF3CFF801E80FF91F1482F701B1
:100BD0005483438305960F900F900F900F90DF91F1
:100BE000CF911F910F91FF90EF90BF90AF909F908A
:100BF0008F907F906F905F904F90089586ED93E077
:100C0000089587EF93E008954F925F926F927F92DD
:100C10008F929F92AF92BF92CF92DF92EF92FF920C
:100C20000F931F93CF93DF93CDB7DEB72C970FB6FB
:100C3000F894DEBF0FBECDBF7C018B01DB018C9130
:100C400090E0F7019383828311962C91922B9383EA
:100C500082836E5F7F4FCE010196DCDE89809A80B1
:100C6000AB80BC8024013501F6E04F0E511C611CA5
:100C7000711C98012B5F3F4FF90186E090E0AC01B9
:100C800070E060E0441555056605770520F4418164
:100C900041930196F4CFB4016A5F7F4FF801E80DEC
:100CA000F91D1582D70115963C932E931497600F6A
:100CB000711FCE010596AEDEBAE08B0E911C4D8001
:100CC0005E806F807884C401092C000CAA0BBB0BDA
:100CD0005C016D01A40CB51CC61CD71CF801E80D05
:100CE000F91DAF01401B510B70E060E04A155B0538
:100CF0006C057D0538F42191AF0142505109DA01AC
:100D00002C93EFCF480C591CB801640D751DFB01E5
:100D100031971082C4010197800F911FF7019783CB
:100D20008683CE01099676DE92012C5F3F4F89843F
:100D30009A84AB84BC84A901032E000C660B770B4C
:100D4000480D591D6A1D7B1DF801E20FF31FCF01ED
:100D5000801B910BB0E0A0E084179507A607B707AA
:100D600028F48191DF0112978C93F1CFC901880D8E
:100D7000991DF801E80FF91FDF0111971C9221500E
:100D80003109020F131FD70119961C930E93189760
:100D90002181428150E070E060E0BA01552744278C
:100DA000522B2081422B2381722BF70142875387DC
:100DB0006487758704962C960FB6F894DEBF0FBE35
:100DC000CDBFDF91CF911F910F91FF90EF90DF90FA
:100DD000CF90BF90AF909F908F907F906F905F90DB
:100DE0004F90089580E194E0089581E394E00895A0
:100DF000FC01DB014C9150E070E060E042835383E2
:100E00006483758311968C911197582B4283538379
:100E10006483758312968C911297682B4283538357
:100E20006483758313968C911397782B4283538335
:100E30006483758314964C91149750E070E060E0E1
:100E4000468357836087718715968C911597582B29
:100E5000468357836087718716968C911697682B07
:100E6000468357836087718717968C91782B4683CA
:100E700057836087718788E090E00895DC01FB016B
:100E800012968C911297808313968C91139781837D
:100E900014968C911497828315968C911597838361
:100EA00016968C911697848317968C911797858345
:100EB00018968C911897868319968C91878388E071
:100EC00090E00895CF92DF92EF92FF920F931F93DD
:100ED000FC01DB01C3800C2D10E030E020E045E098
:100EE00036952795179507954A95D1F70D931D933C
:100EF0002D933C9313978481C82ED12CF12CE12C97
:100F000053E0CC0CDD1CEE1CFF1C5A95D1F7C02A17
:100F1000D12AE22AF32ACD92DD92ED92FC92139728
:100F20008581082F10E030E020E06BE0000F111FFA
:100F3000221F331F6A95D1F70C291D292E293F291D
:100F40000D931D932D933C931397468150E070E0D1
:100F500060E083E1440F551F661F771F8A95D1F724
:100F60004427552768777727042B152B262B372BFB
:100F70000D931D932D933C931397478150E070E0A0
:100F800060E094E0440F551F661F771F9A95D1F7D4
:100F9000407F577066277727C680D12CF12CE12C33
:100FA00084E0F694E794D794C7948A95D1F74C29B6
:100FB0005D296E297F294115510561057105A1F053
:100FC000405853406109710997E1440F551F661F4E
:100FD000771F9A95D1F7402B512B622B732B4D9392
:100FE0005D936D937C931397478150E070E060E0D0
:100FF000742F66275527442744275527662770787E
:101000000D911D912D913C911397402B512B622BEB
:10101000732B4D935D936D937C93139788E090E0D1
:101020001F910F91FF90EF90DF90CF900895EF9276
:10103000FF920F931F93CF93DF938C017B01BC0131
:101040006E5F7F4FC7013EDFEC01B8016A5F7F4FE3
:10105000C7018C0F9D1F36DFC80FD91FB801665F0F
:101060007F4FC7018C0F9D1F2DDF8C0F9D1FDF91C0
:10107000CF911F910F91FF90EF900895EF92FF9203
:101080000F931F93CF93DF937C01EB010296CFDF89
:101090008C01BE01680F791FC7014096C8DF800F21
:1010A000911FDF91CF911F910F91FF90EF900895C5
:1010B0000F931F93CF93DF938C01EC012696CE0103
:1010C000DDDFD8019496ED91FC91CE01DF91CF91B7
:1010D0001F910F9119948F929F92AF92BF92CF92CE
:1010E000DF92EF92FF92CF93DF93EC014A015B0115
:1010F000DB01CA0147E1B595A795979587954A9574
:10110000D1F79927AA27BB270097A105B10521F0A0
:1011100080589C4FAF4FBF4F188219821A82B50179
:10112000A40125E0440F551F661F771F2A95D1F7AC
:101130004B83B501A40133E07595679557954795A5
:101140003A95D1F74C83B501A401EBE0759567950D
:1011500057954795EA95D1F74D83B501A401F3E181
:101160007595679557954795FA95D1F74F706C012E
:101170007D0124E0CC0CDD1CEE1CFF1C2A95D1F770
:101180004C294E836C017D0134E0F594E794D794AB
:10119000C7943A95D1F720E030E0A901C501B40128
:1011A0000E94751387FD0EC0CF8288E090E0DF912A
:1011B000CF91FF90EF90DF90CF90BF90AF909F9036
:1011C0008F9008958C2D80688F83EFCFEF92FF92E0
:1011D0000F931F93CF93DF937C018B01FC0142811E
:1011E000538164817581C80176DFEC01F701468186
:1011F000578160857185C8018C0F9D1F6CDFC80FFA
:10120000D91FF7014285538564857585C8018C0F08
:101210009D1F61DF8C0F9D1FDF91CF911F910F915B
:10122000FF90EF900895EF92FF920F931F93CF934B
:10123000DF937C01EB010296C9DF8C01BE01680FD0
:10124000791FC7014096C2DF800F911FDF91CF91B8
:101250001F910F91FF90EF900895EF92FF920F93DF
:101260001F93CF93DF937C018B01DC011296ED91EC
:10127000FC91EF0109900020E9F72197CE1BDF0BCD
:10128000AE0170E060E0C801F6DBF70162817381B6
:10129000AE01C80104960E94F214CE010496DF91BB
:1012A000CF911F910F91FF90EF9008954F925F9211
:1012B0006F927F928F929F92AF92BF92CF92DF9266
:1012C000EF92FF920F931F93CF93DF93EC017B017B
:1012D0008A81FB0180838B8181838C8182838D81D4
:1012E00083833496412C512C320104E010E09F019D
:1012F0002F5F3F4FCF010296DF011396A8010C5FCD
:101300001F4F8A809B80AC80BD80481459046A04BA
:101310007B04C8F4AA85BB85A40FB51F14974C9114
:1013200011962C91119712969C91129713968C916D
:1013300040832183928383838FEF481A580A680A77
:10134000780A3496D4CF4C8540834D85F90140838B
:101350002E85FC0120838F858C93F701E00FF11F10
:10136000412C512C3201AF019F012F5F3F4FCF0124
:101370000296DF0113960C5F1F4F8C849D84AE8410
:10138000BF84481459046A047B04D8F4CF01841B39
:10139000950BAC89BD89A80FB91F3C9111962C9172
:1013A000119712969C91129713968C9130832183FA
:1013B000928383838FEF481A580A680A780A349612
:1013C000D3CF4E8940834F89F9014083288DFC019A
:1013D0002083898D8C93412C512C32018E899F89D9
:1013E000A88DB98D481659066A067B0678F5520114
:1013F000AA0CBB1CEC8DFD8DEA0DFB1DA081B181FB
:10140000FD0101900020E9F731976F01CA1ADB0A4C
:10141000A60170E060E0C701800F911F2CDB0C5F1C
:101420001F4F8C8D9D8DA80EB91EF50160817181B5
:10143000A601C701800F911F0E94F2140C0D1D1D03
:10144000FFEF4F1A5F0A6F0A7F0AC8CFC801DF910A
:10145000CF911F910F91FF90EF90DF90CF90BF90B1
:10146000AF909F908F907F906F905F904F90089576
:10147000EF92FF920F931F93CF93DF938C017B0129
:10148000DC0112962C911297FB012193CF01139648
:10149000ED91FC91EF0109900020E9F72197CE1B17
:1014A000DF0BAE0170E060E0E6DAD80113966D91D3
:1014B0007C91AE01C70105960E94F214CE010596FB
:1014C000DF91CF911F910F91FF90EF900895CF92F0
:1014D000DF92EF92FF920F931F93CF93DF936C01F4
:1014E000EB01DC0112968C911297888313968C91F4
:1014F000139789831496ED91FC91DF010D900020E4
:10150000E9F78D01015011090E1B1F0BA80170E0B6
:1015100060E0CE010296AFDAF60164817581A80120
:10152000CE0106960E94F214C8010696F601A68125
:10153000B781FD0101900020E9F731977F01EA1A98
:10154000FB0AA70170E060E08C0F9D1F94DA065F34
:101550001F4FD60116966D917C91A701CE01800F89
:10156000911F0E94F2140E0D1F1DF601A085B1857A
:10157000FD0101900020E9F731977F01EA1AFB0A8B
:10158000A70170E060E0CE01800F911F74DA0C5F5C
:101590001F4FD60118966D917C91A701CE01800F47
:1015A000911F0E94F214C701800F911FF6016285FE
:1015B000438534852585C80FD91F688349833A83BD
:1015C0002B830496DF91CF911F910F91FF90EF90A5
:1015D000DF90CF9008952F923F924F925F926F923B
:1015E0007F928F929F92AF92BF92CF92DF92EF92B3
:1015F000FF920F931F93CF93DF93CDB7DEB72E9754
:101600000FB6F894DEBF0FBECDBF8C016B01DB01BE
:101610008D909D90AD90BC90FC0182819381A481BE
:10162000B58188159905AA05BB0570F4B401660F4C
:10163000771F660F771F828593850E941614D80145
:101640001B969C938E931A97F80182829382A482B0
:10165000B582C60140E050E0BA01A4E0EA2EF12CC8
:1016600098012A5F3F4FDC011596EC91159716966D
:101670004C901697512C712C612C32015524442426
:101680005E2A1496EC9114974E2A1796EC917E2AB6
:10169000D7011701E4E02E0E311C71010496F80108
:1016A00082809380A480B580481559056A057B0522
:1016B000A8F446825782608671861497A284B38408
:1016C000AA0DBB1DE4E0BE2EF90101900D92BA9463
:1016D000E1F74F5F5F4F6F4F7F4FC5CF8485958593
:1016E000A685B78584159505A605B70570F4B201E2
:1016F000660F771F660F771F848995890E941614DD
:10170000D80155969C938E935497F801448655863C
:1017100066867786C601820D931D412C512C3201BD
:101720001C019801205F3F4FDC0111966C911197CD
:1017300012968C901297912CB12CA12C54019924C3
:101740008824962A6C91862A13966C91B62AB4E066
:10175000EB0EF11CF80144855585668577854416A6
:10176000550666067706C0F4808A918AA28AB38AF3
:10177000BC0162197309A489B589A60FB71F64E07B
:10178000F90101900D926A95E1F7BFEF4B1A5B0AE0
:101790006B0A7B0A0496C8CF86899789A08DB18D84
:1017A00088159905AA05BB0560F4B401660F771F7B
:1017B000848D958D0E941614D8015D969C938E930E
:1017C0005C97F801868A978AA08EB18E412C512CA5
:1017D00032011801FAE12F0E311CF8018689978930
:1017E000A08DB18D481659066A067B0608F05BC0CD
:1017F000B6016E0D7F1DCE0101960CD997012C5FAD
:101800003F4F3E872D8789809A80AB80BC80C9017D
:10181000032E000CAA0BBB0BAC01BD01480D591DDA
:101820006A1D7B1D49875A876B877C87F901EC0D00
:10183000FD1D9F012C193D09B90190E080E029852B
:101840003A854B855C85621773078407950728F4F2
:101850002191DF0112972C93ECCFED84FE84E80CEC
:10186000F91CF601EE0DFF1D319710828D859E85C6
:1018700001978C0D9D1DD8015B969C938E935A9772
:10188000C201880F991F5C96ED91FC91E80FF91F3A
:10189000D1018D919C9191838083BFEF4B1A5B0A9C
:1018A0006B0A7B0A9ACFC7012E960FB6F894DEBF5B
:1018B0000FBECDBFDF91CF911F910F91FF90EF90A1
:1018C000DF90CF90BF90AF909F908F907F906F9060
:1018D0005F904F903F902F9008952F923F924F929C
:1018E0005F926F927F928F929F92AF92BF92CF92B0
:1018F000DF92EF92FF920F931F93CF93DF93CDB7B9
:10190000DEB7A6970FB6F894DEBF0FBECDBF8C0131
:101910000E9418044B015C01980125573B4F3E8BF8
:101920002D8BF90180819181A281B38175016401C0
:10193000C81AD90AEA0AFB0AD701C601893F9A42A6
:10194000A105B10510F035971082180134E8231A6B
:101950003BEF330AD1018D919C91892B79F0F801ED
:10196000E157FB4F80819181A281B3818815990550
:10197000AA05BB0518F4F1011182108298012C57B9
:101980003B4F3A8B298BA80140585B4F5C8B4B8BAC
:10199000C8014896988F8F8BD801AA57BB4FBC8F30
:1019A000AB8FF801EC56FB4FFE8FED8F215F3F4F61
:1019B00038A32F8F42505109588B4F8786599B4F20
:1019C0009A8F898F1996BAA3A9A3A50194012C5EB9
:1019D0003F4F4F4F5F4F2BA33CA34DA35EA3F80196
:1019E00084899589A689B789892B8A2B8B2BB9F590
:1019F000D80112968D919C91DC01ED91FC910284AD
:101A0000F385E02D19959C0197FF3DC0F801EA5739
:101A1000FB4F8081882301F17801B9E7EB1ABBEF16
:101A2000FB0AF70180819181A281B381A501940114
:101A3000281B390B4A0B5B0BDA01C901853C994025
:101A4000A105B10548F0C8010E94D504D7018D92C7
:101A50009D92AD92BC92139790E080E0B4C10E9439
:101A60001804681979098A099B09F801C488D5887E
:101A7000E688F788C616D706E806F90608F0B8CF54
:101A80008EEF9FEFA0C1A989BA898D919C91119782
:101A9000820F931F8D939C93F101408151814730B8
:101AA0005105F9F4A98DBA8D8D919C911197AC01D6
:101AB0004F5F5F4F4D935C93800F911FFC01208F10
:101AC000AF85B8898D919C91119701978D939C93C7
:101AD000892B09F084CF88E090E0F1019183808325
:101AE0007ECF4115510521F52F3F310581F481E06D
:101AF00090E091838083CBA0DCA0EDA0FEA0A9A103
:101B0000BAA1CD92DD92ED92FC92139768CF0E941C
:101B10001804681979098A099B0969387341810594
:101B2000910508F45CCFF801EA57FB4F1082A8CF6B
:101B30004130510589F42E3F310519F482E090E0DF
:101B4000CCCF11821082EB8DFC8D8081811147CF2B
:101B5000C8010E94D50443CF4230510591F4AF85AE
:101B6000B8892D933C93E98DFA8D1182108283E020
:101B700090E0D1018D939C93E989FA893183208388
:101B80002ECF4330510571F4322F2227AF85B8890B
:101B90008D919C911197280F391F2D933C9384E0D0
:101BA00090E09BCF4430510571F460E071E0D4D5F2
:101BB0008F3F910529F485E090E0918380830FCFDA
:101BC000118210820CCF4530510569F4AB89BC8974
:101BD0002D933C9386E090E091838083A989BA8914
:101BE0002D933C93FCCE46305105A1F4322F222791
:101BF000EB89FC8980819181280F391F31832083F3
:101C000087E090E0D1018D939C93EF85F8898081E6
:101C100091815ECF4830510509F0E1CE11821082EA
:101C200060E071E099D58F3F910509F0D8CEAB897E
:101C3000BC89ED91FC91309709F0DEC0C8010E948B
:101C4000D50483E392E09A8389831C821B8288E116
:101C500093E09E838D8398878F839A8789871B86DD
:101C60001C861D861E866801B8EECB1ABBEFDB0A08
:101C70007801E6EBEE1AEBEFFE0A412C22E0522E41
:101C8000612C712CD601ED91FC913097A9F18481E2
:101C900095819C838B83808191819E838D838281BA
:101CA0009381DC01ED91FC910480F581E02D199583
:101CB00098878F83D601ED91FC9182819381DC011D
:101CC000ED91FC910680F781E02D19959A8789871F
:101CD0004B865C866D867E86D601ED91FC91608593
:101CE0007185D801ED91FC910190F081E02DAE015C
:101CF0004F5F5F4FC8011995B2E0CB0ED11CEC14B9
:101D0000FD0409F0BFCF412C92E0592E612C712CBB
:101D1000F701A081B1811097E1F112968D919C910C
:101D200013979C838B8314968D919C9115979E831A
:101D30008D83ED91FC9111970480F581E02DCD010B
:101D4000199598878F83D7018D919C91DC01ED9136
:101D5000FC910680F781E02D19959A8789874B863B
:101D60005C866D867E86D801ED91FC91C080D18025
:101D7000F70180819181DC01ED91FC910280F3817A
:101D8000E02D1995AE014F5F5F4FBC01C801F60110
:101D90001995F2E0EF0EF11CE214F30409F0B8CF4C
:101DA000F801EA57FB4F81E080833196808291826F
:101DB000A282B382AD89BE898D929D92AD92BC9272
:101DC00013978FEF9FEFA6960FB6F894DEBF0FBE66
:101DD000CDBFDF91CF911F910F91FF90EF90DF90DA
:101DE000CF90BF90AF909F908F907F906F905F90BB
:101DF0004F903F902F900895EA30F10509F09CC074
:101E00008FE392E09A8389831B821C821D821E824B
:101E10001F82188619861A860E941804F801C08449
:101E2000D184E284F3849B01AC012C193D094E0955
:101E30005F0969017A016F89788DCE0101960E9450
:101E4000F806C701B60128EE33E040E050E097D431
:101E500069017A019B01AC018B819C81AD81BE81BE
:101E60008C0D9D1DAE1DBF1D8B839C83AD83BE83DA
:101E700060E472E48FE090E060D4CF80D884E9849D
:101E8000FA84DC01CB018C0D9D1DAE1DBF1D8F831F
:101E90009887A987BA870E941804CF80D884E984DC
:101EA000FA8436E3D31A35E6E30A34ECF30A28EE73
:101EB00033E040E050E063D429013A019B01AC01DA
:101EC00060E472E48FE090E038D4A7019601261B0D
:101ED000370B480B590BCA01B9012B813C814D814D
:101EE0005E81215031094109510969017A01C41803
:101EF000D508E608F7082601370120E03AEC4AE960
:101F00005BE33DD4420E531E641E751ED8011C9621
:101F10004D925D926D927C921F97F801608B718B50
:101F2000828B938B0E941804AD89BE896D937D933B
:101F30008D939C93139753CDE630F10551F46F893F
:101F4000788D8D8D9E8D47DB81E0EF8DF8A18083AC
:101F500046CDEB30F10521F4AB8DBC8D1C923FCD0D
:101F6000EF53FE4FEE0FFF1FE00FF11F80819181B5
:101F7000009709F434CDDC01ED91FC910190F081E2
:101F8000E02D6F89788D19952ACD1F920F920FB68B
:101F90000F9211240BB60F922F933F934F935F93A1
:101FA0006F937F938F939F93AF93BF93EF93FF9321
:101FB00081E694E00E948C02FF91EF91BF91AF9176
:101FC0009F918F917F916F915F914F913F912F9151
:101FD0000F900BBE0F900FBE0F901F9018951F9281
:101FE0000F920FB60F9211240BB60F922F938F936F
:101FF0009F93EF93FF93E0917104F09172048081BD
:10200000E0917704F091780482FD1DC09081809169
:102010007A048F5F8F7320917B04821741F0E091E7
:102020007A04F0E0EF59FB4F958F80937A04FF918B
:10203000EF919F918F912F910F900BBE0F900FBE3C
:102040000F901F9018958081F2CF1F920F920FB6BC
:102050000F9211240BB60F922F933F934F935F93E0
:102060006F937F938F939F93AF93BF93EF93FF9360
:102070008EEF94E00E948C02FF91EF91BF91AF919F
:102080009F918F917F916F915F914F913F912F9190
:102090000F900BBE0F900FBE0F901F9018951F92C0
:1020A0000F920FB60F9211240BB60F922F938F93AE
:1020B0009F93EF93FF93E0910E05F0910F058081C0
:1020C000E0911405F091150582FD1DC0908180916D
:1020D00017058F5F8F7320911805821741F0E091EB
:1020E0001705F0E0E250FB4F958F80931705FF91A5
:1020F000EF919F918F912F910F900BBE0F900FBE7C
:102100000F901F9018958081F2CF1F920F920FB6FB
:102110000F9211242F933F938F939F93AF93BF936D
:102120008091590490915A04A0915B04B0915C0491
:102130003091580423E0230F2D3758F50196A11D47
:10214000B11D209358048093590490935A04A0938E
:102150005B04B0935C0480915D0490915E04A09157
:102160005F04B09160040196A11DB11D80935D04D0
:1021700090935E04A0935F04B0936004BF91AF910D
:102180009F918F913F912F910F900FBE0F901F90B5
:10219000189526E8230F0296A11DB11DD2CF1092EB
:1021A00064041092630448EE53E060E070E04093F2
:1021B00065045093660460936704709368048BE72A
:1021C00092E090936204809361042DEC30E03093B0
:1021D0006E0420936D042CEC30E030937004209357
:1021E0006F0428EC30E0309372042093710429ECE2
:1021F00030E030937404209373042AEC30E0309381
:102200007604209375042EEC30E03093780420930C
:10221000770410927A0410927B0410927C0410923E
:102220007D04109201051092000540930205509321
:10223000030560930405709305059093FF04809354
:10224000FE0485EC90E090930B0580930A0584ECE6
:1022500090E090930D0580930C0580EC90E09093B6
:102260000F0580930E0581EC90E09093110580930B
:10227000100582EC90E0909313058093120586EC94
:1022800090E0909315058093140510921705109215
:1022900018051092190510921A0589E992E0909399
:1022A000B8058093B7058EEF94E09093BA058093BC
:1022B000B90580E091EEA0E0B0E08093BB0590937B
:1022C000BC05A093BD05B093BE0510923D0A8DE8F4
:1022D00092E090934C0A80934B0A1092610A1092FC
:1022E000620A1092630A1092640A1092680A1092AD
:1022F000670AEFECF9E0119211928AE0E130F807F9
:10230000D1F7E1E0FAE0119211928AE0E333F807A5
:10231000D1F7EFECF5E08FEC97E011928E179F0765
:10232000E1F7EFECF7E0119289E0EF3CF807D9F71D
:1023300010924D0A10924E0A10924F0A1092500AB3
:102340001092560A1092550A1092570A1092580A83
:102350001092590A10925A0A1092600A10925F0A5B
:102360001092CB051092CC051092CD051092CE059F
:1023700023EA32E03093B4052093B30588E193E07B
:102380009093B6058093B5053093B0052093AF05C3
:102390009093B2058093B1058FE394E09093A605E6
:1023A0008093A50583EB95E09093A8058093A705FE
:1023B0001092AE051092AD0587E494E090939C05D1
:1023C00080939B058FEA95E090939E0580939D05F1
:1023D0001092A4051092A3050895CF93DF93CDB773
:1023E000DEB7A8970FB6F894DEBF0FBECDBF7894C6
:1023F00084B5826084BD84B5816084BD85B582600A
:1024000085BD85B5816085BD80916E0081608093BA
:102410006E00109281008091810082608093810023
:102420008091810081608093810080918000816033
:10243000809380008091B10084608093B10080918E
:10244000B00081608093B0008091910082608093A1
:102450009100809191008160809391008091900023
:102460008160809390008091A10082608093A100A0
:102470008091A10081608093A1008091A000816083
:102480008093A0008091210182608093210180913E
:1024900021018160809321018091200181608093DE
:1024A000200180917A00846080937A0080917A0084
:1024B000826080937A0080917A00816080937A00B4
:1024C00080917A00806880937A001092C1008FE634
:1024D00092E09A83898383E692E098878F8387E5E9
:1024E00092E09A8789871B861C861D861E861F861A
:1024F000188A198A1A8A1B8A1C8A1D8A1E8A988F32
:102500008F8B198E1A8E1B8E1C8E1D8E1E8E1F8E0B
:1025100018A219A21AA21BA21CA289E993E09EA3E9
:102520008DA381E090E098A78FA38BE494E09E8335
:102530008D83EBE6F1E02491E5E2F1E084918823DC
:1025400099F090E0880F991FFC01EC51FF4FA59185
:10255000B491FC01E250FF4F859194918FB7F894AC
:10256000EC91E22BEC938FBF4091BB055091BC05E1
:102570006091BD057091BE058091B9059091BA0535
:102580000E9428011092340A1092330A1092360ADF
:102590001092350A10923A0A1092390A1092380AAB
:1025A0001092370AAFECB9E0FD0190E080E0219194
:1025B0003191232B09F087C0FC01EE0FFF1FE1537F
:1025C000F64F25EA35E03183208383589F4F90935F
:1025D000AA058093A90587EB95E09093AC058093BD
:1025E000AB0590E080E02D913D91232B09F071C067
:1025F000FC01EE0FFF1FE153F64F2BE935E031836D
:10260000208383589F4F9093A00580939F0587EB6D
:1026100095E09093A2058093A105E1E0FAE090E0B7
:1026200080E021913191232B09F059C0FC01EE0F7C
:10263000FF1FEF5FF54F9E012F5F3F4F31832083D8
:102640008C599F4F9C838B8380E092ECA1E0B0E09B
:102650008093BB059093BC05A093BD05B093BE05C8
:1026600040E052EC61E070E08EEF94E00E942801BF
:1026700040E855E260E070E081E694E00E942801C5
:1026800000E012E01093B6050093B5058091AB050C
:102690009091AC056091A9057091AA05DC01ED91BE
:1026A000FC910190F081E02D43EB55E0199587EB0B
:1026B00095E013D961E070E080E090E00E9469034A
:1026C0000E941903DFCF01968931910509F06FCF80
:1026D00088CF01968931910509F085CF9ECF01966B
:1026E0008931910509F09DCFAFCF03D008F481E087
:1026F0000895990F0008550FAA0BE0E8FEEF161693
:102700001706E807F907C0F012161306E407F507E5
:1027100098F0621B730B840B950B39F40A2661F059
:10272000232B242B252B21F408950A2609F4A140FC
:10273000A6958FEF811D811D0895DB018F939F93D7
:1027400048D0BF91AF91A29F800D911DA39F900D86
:10275000B29F900D1124089597FB072E16F4009454
:1027600006D077FD08D03FD007FC05D03EF4909509
:1027700081959F4F0895709561957F4F0895A1E2CF
:102780001A2EAA1BBB1BFD010DC0AA1FBB1FEE1FEB
:10279000FF1FA217B307E407F50720F0A21BB30B36
:1027A000E40BF50B661F771F881F991F1A9469F7B2
:1027B00060957095809590959B01AC01BD01CF010E
:1027C0000895EE0FFF1F881F8BBF0790F691E02D35
:1027D00019941DD0A59F900DB49F900DA49F800DBE
:1027E000911D11240895AA1BBB1B51E107C0AA1F0C
:1027F000BB1FA617B70710F0A61BB70B881F991FA2
:102800005A95A9F780959095BC01CD010895A29F96
:10281000B001B39FC001A39F700D811D1124911DB4
:10282000B29F700D811D1124911D08954F925F92EA
:102830006F927F928F929F92AF92BF92CF92DF92D0
:10284000EF92FF920F931F93CF93DF938C0100972A
:1028500091F4CB01DF91CF911F910F91FF90EF90F9
:10286000DF90CF90BF90AF909F908F907F906F90B0
:102870005F904F90C0C0FC01E60FF71F9C012250F3
:102880003109E217F30708F4AAC0D901CD91DC9110
:102890001197C617D70718F1C530D10570F0CE01D2
:1028A00004978617970748F0C61BD70B2297C1934A
:1028B000D1936D937C93CF013AD1C801DF91CF9131
:1028C0001F910F91FF90EF90DF90CF90BF90AF904E
:1028D0009F908F907F906F905F904F9008955B01D5
:1028E000AC1ABD0A4C018C0E9D1EA0916B0AB091D2
:1028F0006C0A512C412CF12CE12C109731F5809170
:10290000690A90916A0A8815990509F05CC0461613
:10291000570608F058C080910D0290910E02009762
:1029200041F48DB79EB74091110250911202841B61
:10293000950BE817F90708F052C0F0936A0AE09384
:10294000690AF90171836083B8CF8D919C911197C9
:1029500012966C90129713967C901397A815B90550
:1029600059F56C0142E0C40ED11CCA14DB0420F1FD
:10297000AC014A195B09DA011296159780F0628260
:10298000738251834083D9016D937C93E114F104E8
:1029900071F0D7011396FC93EE9312978ECF229687
:1029A0008C0F9D1FF90191838083F301EFCFF0938A
:1029B0006C0AE0936B0A81CF4816590608F42C0183
:1029C0007D01D3019ACFCB0116D07C01009739F05D
:1029D000AE01B80107D0C801AAD087016ECF10E0C0
:1029E00000E06BCFFB01DC0102C001900D92415071
:1029F0005040D8F708950F931F93CF93DF93823001
:102A0000910510F482E090E0E0916B0AF0916C0A7D
:102A100030E020E0B0E0A0E0309799F421153105D6
:102A200009F44AC0281B390B24303105D8F58A81B6
:102A30009B816115710589F1FB0193838283FE01FE
:102A400011C0408151810281138148175907E0F07C
:102A50004817590799F4109761F012960C93129742
:102A600013961C933296CF01DF91CF911F910F9156
:102A7000089500936B0A10936C0AF4CF2115310569
:102A800051F04217530738F0A901DB019A01BD014B
:102A9000DF01F801C1CFEF01F9CF90936C0A809369
:102AA0006B0ACDCFFE01E20FF31F81939193225069
:102AB000310939832883D7CF2091690A30916A0A76
:102AC000232B41F420910F023091100230936A0AB7
:102AD0002093690A20910D0230910E0221153105D3
:102AE00041F42DB73EB74091110250911202241BC0
:102AF000350BE091690AF0916A0AE217F307A0F436
:102B00002E1B3F0B2817390778F0AC014E5F5F4F43
:102B10002417350748F04E0F5F1F50936A0A409301
:102B2000690A819391939FCFF0E0E0E09CCFCF932F
:102B3000DF930097E9F0FC01329713821282A09193
:102B40006B0AB0916C0AED0130E020E01097A1F41F
:102B500020813181820F931F2091690A30916A0A86
:102B60002817390709F061C0F0936A0AE093690AEF
:102B7000DF91CF910895EA01CE17DF07E8F54A818A
:102B80005B819E0141155105B1F7E901FB83EA83A1
:102B900049915991C40FD51FEC17FD0761F480814D
:102BA00091810296840F951FE90199838883828120
:102BB00093819B838A83F0E0E0E012968D919C9153
:102BC00013970097B9F52D913C911197CD0102967D
:102BD000820F931F2091690A30916A0A28173907DA
:102BE00039F6309751F510926C0A10926B0AB09337
:102BF0006A0AA093690ABCCFD383C2834081518102
:102C0000840F951FC817D90761F44E5F5F4F888105
:102C10009981480F591F518340838A819B819383F7
:102C200082832115310509F0B0CFF0936C0AE0934F
:102C30006B0A9ECFFD01DC01C0CF13821282D7CF79
:042C4000F894FFCF36
:102C440068656C6C6F20776F726C64210000006D96
:102C54000A8000726F7373657269616C5F6D73676C
:102C6400732F52657175657374506172616D0000E4
:102C7400000000670A04060106FE05000000003E8D
:102C840007F806F506F20600000000380AA905A6B2
:102C940005A30500000000E60817084405410500E7
:102CA40000000013093E082C042904000000005809
:102CB400082F042C04290400000000AE0210023D79
:102CC40002FA026E024C026002000000005609EB98
:102CD4000AA0059D050000000033046D0C240400C7
:102CE4000000002D094D054A05470539663139357F
:102CF400663838313234366664666132373938645E
:102D040031643365656263613834610067656F6D92
:102D1400657472795F6D7367732F54776973740088
:102D24004D6573736167652066726F6D20646576A7
:102D34006963652064726F707065643A206D6573B1
:102D440073616765206C6172676572207468616E77
:102D5400206275666665722E0034613834326236DC
:102D6400356634313330383464633262313066620C
:102D74003438346561376631370067656F6D657463
:102D840072795F6D7367732F566563746F72330066
:102D9400393932636538613136383763656338638E
:102DA400386264383833656337336361343164318E
:102DB400007374645F6D7367732F537472696E6705
:102DC40000396630653938626461363539383139ED
:102DD400383664646635336166613761343065342E
:102DE4003900313161626437333163323539333319
:102DF40032363163643631383362643132643632A8
:102E0400393500726F7373657269616C5F6D7367D6
:102E1400732F4C6F670030616435316638386663F0
:102E240034343839326638633130363834303737F1
:102E340036343630303500726F7373657269616C85
:102E44005F6D7367732F546F706963496E666F00AB
:102E5400636437313636633734633535326333313F
:102E6400316662636332666535613762633238396D
:102E7400007374645F6D7367732F54696D650063C9
:102E840068617474657200677073007361696C6261
:082E94006F61745F636D64005F
:00000001FF
