:10000000F4C0000004C1000002C1000000C10000F3
:10001000FEC00000FCC00000FAC00000F8C00000F4
:10002000F6C00000D0C30000CEC30000CCC3000067
:10003000EEC00000ECC00000EAC00000E8C0000014
:10004000E6C00000E4C00000E2C00000E0C0000024
:10005000DEC00000DCC00000DAC000004BC20000BF
:10006000D6C00000D4C00000D2C00000D0C0000044
:10007000CEC00000CCC00000CAC00000C8C0000054
:10008000C6C00000C4C00000C2C00000C0C0000064
:10009000BEC00000BCC00000BAC0000075C20000B5
:1000A000B6C00000B4C00000B2C00000B0C0000084
:1000B000AEC00000ACC00000AAC00000A8C0000094
:1000C000A6C00000A4C00000A2C00000A0C00000A4
:1000D0009EC000009CC000009AC0000098C00000B4
:1000E00096C0000000002100240027002A002D00F7
:1000F0003000330001010000040107010A01000083
:100100002200250028002B002E00310034000201BF
:100110000000050108010B01050505050705080894
:100120000808020202020A0A080804040404010181
:100130000101010101010303030303030303040796
:1001400007070C0C0C0C0C0C0C0C0202020206062D
:100150000606060606060B0B0B0B0B0B0B0B010220
:1001600010202008081020401020408002010201C9
:100170000804020101020408102040808040201081
:1001800008040201800402018040201008040201DA
:100190000804020101020408102040800102040842
:1001A0001020408000000A0B02090C0D0E08070306
:1001B000040100000000000000000000000000003A
:1001C000000000000000000000000000000000002F
:1001D00012111000000000000000000000000000EC
:1001E0000000000000000000000011241FBECFEF3F
:1001F000D1E2DEBFCDBF00E00CBF25E0A0E0B2E061
:1002000001C01D92A331B207E1F7E7D282C3F8CE55
:10021000382FE1EBF1E08491EBE6F1E02491E5E2A7
:10022000F1E09491992309F434C0882309F18150B5
:100230008231F0F4E82FF0E08827EF5DFE4F8F4F1A
:1002400060C35201560133014A014E013801590180
:100250005F01630169016D01710177017B01380163
:100260007F0185018901809180008F7780938000D4
:10027000E92FF0E0EE0FFF1FE250FF4FA591B49180
:100280008FB7F894EC91311148C020952E232C9310
:100290008FBF0895809180008F7DE8CF809180008E
:1002A000877FE4CF84B58F7784BDE2CF84B58F7D1F
:1002B000FBCF8091B0008F778093B000D9CF809131
:1002C000B0008F7DF9CF809190008F778093900060
:1002D000CFCF809190008F7DF9CF80919000877F64
:1002E000F5CF8091A0008F778093A000C1CF80913F
:1002F000A0008F7DF9CF8091A000877FF5CF8091FE
:1003000020018F7780932001B3CF809120018F7DD2
:10031000F9CF80912001877FF5CF2E2BB8CF80E0D9
:1003200090E0892B49F080E090E0892B29F00E9431
:10033000000081110E94000080E090E0892B49F0CC
:1003400080E090E0892B29F00E94000081110E943A
:10035000000080E090E0892B49F080E090E0892B5C
:1003600029F00E94000081110E94000080E090E0CE
:10037000892B49F080E090E0892B29F00E94000051
:1003800081110C94000008953FB7F89480910F05F7
:1003900090911005A0911105B091120526B5A89B6A
:1003A00005C02F3F19F00196A11DB11D3FBFBA2F07
:1003B000A92F982F8827BC01CD01620F711D811DC7
:1003C000911D42E0660F771F881F991F4A95D1F74C
:1003D00008958F929F92AF92BF92CF92DF92EF9249
:1003E000FF92D2DF4B015C0188EEC82E83E0D82E4D
:1003F000E12CF12CC9DF681979098A099B09683E4B
:10040000734081059105B0F321E0C21AD108E108DB
:10041000F10888EE880E83E0981EA11CB11CC1145F
:10042000D104E104F10431F7FF90EF90DF90CF9019
:10043000BF90AF909F908F90089585ED8093BC0002
:100440008091BC0084FDFCCF10920504089520919A
:100450000203260F3327331F2F3F310509F0ECF439
:1004600020910504FC0190E080E0243069F082E0F6
:100470000895A09102032191AC014D5F5D4FA40F3F
:10048000B52FB11D2C930196861798F38091020326
:10049000680F6093020380E0089581E00895089555
:1004A0008FEF9FEF08958FEF9FEF089580910202E5
:1004B00090E09195819591090895CF93DF93CB01B9
:1004C000EA01642FC4DFCE01DF91CF910895CF936D
:1004D000DF931F92CDB7DEB7698361E0CE0101964D
:1004E000B6DF81E090E00F90DF91CF91089590E02A
:1004F00080E008951F920F920FB60F9211242F9350
:100500003F938F939F93AF93BF9380910B059091EF
:100510000C05A0910D05B0910E0530910A0523E060
:10052000230F2D3758F50196A11DB11D20930A0503
:1005300080930B0590930C05A0930D05B0930E05C9
:1005400080910F0590911005A0911105B0911205B1
:100550000196A11DB11D80930F0590931005A093E6
:100560001105B0931205BF91AF919F918F913F916B
:100570002F910F900FBE0F901F90189526E8230F14
:100580000296A11DB11DD2CF1F920F920FB60F92EE
:1005900011240BB60F922F933F934F935F936F935A
:1005A0007F938F939F93AF93BF93EF93FF9380912C
:1005B000B900887F803609F44CC008F03FC088320B
:1005C00009F4A6C028F5803109F49AC0C8F488233C
:1005D00009F4F6C0883009F493C0FF91EF91BF9100
:1005E000AF919F918F917F916F915F914F913F91CB
:1005F0002F910F900BBE0F900FBE0F901F9018956C
:10060000883109F485C0803241F78093040414C016
:10061000803409F49AC040F48033B9F38833E9F6A2
:100620008093040485ECADC0803509F482C0883520
:1006300009F493C0883489F600DFCFCF883909F4F4
:100640008AC038F5883729F050F4883611F08037A1
:1006500021F683E0809305041092030455C0883886
:1006600009F479C0803919F0803809F0B6CF80914B
:1006700003048F3F09F46FC0E091030481E08E0F03
:10068000809303048091BB00F0E0EC5FFC4F80831B
:100690003BC0803B39F0D0F4803A09F477C0883A07
:1006A00009F09BCF84E0809305041092030310921D
:1006B0000203F0E0E0E019958091020381110FC080
:1006C00081E0809302031092030209C0803C09F488
:1006D000A9CF883C09F4A6CF883B09F07ECFE091F2
:1006E000030381E08E0F80930303F0E0ED5FFD4F85
:1006F00080818093BB00909103038091020329C005
:10070000809109058093BB0085EC8093BC0065CF88
:100710009091080580910705981758F5E091080514
:1007200081E08E0F80930805F0E0E85FFB4F808149
:10073000E9CFE091080581E08E0F80930805809154
:10074000BB00F0E0E85FFB4F80839091080580914B
:1007500007059817C8F285E8D8CFE091080581E031
:100760008E0F809308058091BB00F0E0E85FFB4F9F
:1007700080838091070481115FCF81E0809306041C
:1007800084EA8093BC001092050427CF85EC809307
:10079000BC0010920504809103048F3F31F0E0917A
:1007A0000304F0E0EC5FFC4F10826091030470E002
:1007B00084E093E0F0E0E0E01995109203040DCF9F
:1007C0001092040439CF1F920F920FB60F9211248A
:1007D0000F900FBE0F901F901895789484B582608B
:1007E00084BD84B5816084BD85B5826085BD85B5D5
:1007F000816085BD80916E00816080936E00109253
:1008000081008091810082608093810080918100CD
:10081000816080938100809180008160809380005E
:100820008091B10084608093B1008091B0008160BC
:100830008093B000809191008260809391008091BC
:1008400091008160809391008091900081608093FD
:1008500090008091A10082608093A1008091A1000E
:1008600081608093A1008091A00081608093A000AE
:10087000809121018260809321018091210181601A
:1008800080932101809120018160809320018091DB
:100890007A00846080937A0080917A0082608093ED
:1008A0007A0080917A00816080937A0080917A004A
:1008B000806880937A001092C100EBE6F1E0249109
:1008C000E5E2F1E08491882399F090E0880F991F88
:1008D000FC01EC51FF4FA591B491FC01E250FF4F98
:1008E000859194918FB7F894EC91E22BEC938FBFA4
:1008F00081E08EDC6EDD80E08BDC6BDD10DDF8CF1F
:100900000895EE0FFF1F881F8BBF0790F691E02D13
:060910001994F894FFCFDA
:00000001FF
